{
  "transactions": [
    {
      "hash": "0xa86aa7f68bbe385e48b9488eaf40479936d619bb1321794981a213a497d0b3da",
      "transactionType": "CALL",
      "contractName": null,
      "contractAddress": "0x42f15f9e4df4994317453477e80e24797cc1a929",
      "function": "setSupportedStakingContracts((address,uint8)[])",
      "arguments": [
        "[(0x0dB67D60d98cF8d27C8720110c7793929f091cc2, 1), (0x0Fe4F44beE93503346A3Ac9EE5A26b130a5796d6, 0), (0x13760F50a9d7377e4F20CB8CF9e4c26586c658ff, 0), (0x1BeE69b7dFFfA4E2d53C2a2Df135C388AD25dCD2, 0), (0x298aFB19A105D59E74658C4C334Ff360BadE6dd2, 0), (0x2Bcfa0283C92b7845ECE12cEaDc521414BeF1067, 1), (0x35E44d92E8F738A272Bddbae53d1Dc9490e75Fe7, 1), (0x369d807C75a37279D26ADEb2dEED1A8491283bE4, 1), (0x3bA6930baC1630873F5fd206e293cA543Fcea7A2, 1), (0x446970400e1787814CA050A4b45AE9d21B3f7EA7, 1), (0x450a90fdEa8B87a6448Ca1C87c88Ff65676aC45b, 1), (0x4b873da454d038b10A87Eb196bdbcD43E28B3012, 1), (0x4e0554959A631B3D3938ffC158e0a7b2124aF9c5, 1), (0x54945180dB7943c0ed0FEE7EdaB2Bd24620256bc, 0), (0x57ba429517c3473B6d34CA9aCd56c0e735b94c02, 0), (0x65B560d887c010c4993C8F8B36E595C171d69D63, 1), (0x7b276aAD6D2ebfD7e270C5a2697ac79182D9550E, 1), (0x7CA911E83dabf90C90dD3De5411a10F1A6112184, 0), (0x81bb35c4152B605574BAbD320f8EABE2871CE8C6, 1), (0x82c304aa105fbbE2aA368A83D7F8945d41f6cA54, 1), (0x8CA7A5d6f3acd3A7A8bC468a8CD0FB14B6BD28b6, 0), (0x9205c82D529A79B941A9dF2f621a160891F57a0d, 1), (0x93b96D7cDe40DC340CA55001F46B3B8E41bC89B4, 1), (0x93c4b944D05dfe6df7645A86cd2206016c51564D, 0), (0x9d7eD45EE2E8FC5482fa2428f15C971e6369011d, 0), (0xa4C637e0F704745D182e4D38cAb7E7485321d059, 0), (0xa88e91cEF50b792f9449e2D4C699b6B3CcE1D19F, 1), (0xaCB55C530Acdb2849e6d4f36992Cd8c9D50ED8F7, 0), (0xAe60d8180437b5C34bB956822ac2710972584473, 0), (0xaF07131C497E06361dc2F75de63dc1d3e113f7cb, 1), (0xB8Fd82169a574eB97251bF43e443310D33FF056C, 1), (0xc10A7f0AC6E3944F4860eE97a937C51572e3a1Da, 1), (0xD25f31806de8d608D05DfeAEB1140C1D365864B3, 1), (0xd4E20ECA1f996Dab35883dC0AD5E3428AF888D45, 1), (0xdC47953c816531a8CA9E1D461AB53687d48EEA26, 1), (0xEa0F2EA61998346aD39dddeF7513ae90915AFb3c, 1), (0xF60E6E6d8648FdBC2834EF7bC6f5E49aB55bec31, 1)]"
      ],
      "transaction": {
        "from": "0xdaee5da6c6597226da268644d30257800d1b858d",
        "to": "0x42f15f9e4df4994317453477e80e24797cc1a929",
        "gas": "0x118054",
        "value": "0x0",
        "input": "0x1dd2f74b000000000000000000000000000000000000000000000000000000000000002000000000000000000000000000000000000000000000000000000000000000250000000000000000000000000db67d60d98cf8d27c8720110c7793929f091cc200000000000000000000000000000000000000000000000000000000000000010000000000000000000000000fe4f44bee93503346a3ac9ee5a26b130a5796d6000000000000000000000000000000000000000000000000000000000000000000000000000000000000000013760f50a9d7377e4f20cb8cf9e4c26586c658ff00000000000000000000000000000000000000000000000000000000000000000000000000000000000000001bee69b7dfffa4e2d53c2a2df135c388ad25dcd20000000000000000000000000000000000000000000000000000000000000000000000000000000000000000298afb19a105d59e74658c4c334ff360bade6dd200000000000000000000000000000000000000000000000000000000000000000000000000000000000000002bcfa0283c92b7845ece12ceadc521414bef1067000000000000000000000000000000000000000000000000000000000000000100000000000000000000000035e44d92e8f738a272bddbae53d1dc9490e75fe70000000000000000000000000000000000000000000000000000000000000001000000000000000000000000369d807c75a37279d26adeb2deed1a8491283be400000000000000000000000000000000000000000000000000000000000000010000000000000000000000003ba6930bac1630873f5fd206e293ca543fcea7a20000000000000000000000000000000000000000000000000000000000000001000000000000000000000000446970400e1787814ca050a4b45ae9d21b3f7ea70000000000000000000000000000000000000000000000000000000000000001000000000000000000000000450a90fdea8b87a6448ca1c87c88ff65676ac45b00000000000000000000000000000000000000000000000000000000000000010000000000000000000000004b873da454d038b10a87eb196bdbcd43e28b301200000000000000000000000000000000000000000000000000000000000000010000000000000000000000004e0554959a631b3d3938ffc158e0a7b2124af9c5000000000000000000000000000000000000000000000000000000000000000100000000000000000000000054945180db7943c0ed0fee7edab2bd24620256bc000000000000000000000000000000000000000000000000000000000000000000000000000000000000000057ba429517c3473b6d34ca9acd56c0e735b94c02000000000000000000000000000000000000000000000000000000000000000000000000000000000000000065b560d887c010c4993c8f8b36e595c171d69d6300000000000000000000000000000000000000000000000000000000000000010000000000000000000000007b276aad6d2ebfd7e270c5a2697ac79182d9550e00000000000000000000000000000000000000000000000000000000000000010000000000000000000000007ca911e83dabf90c90dd3de5411a10f1a6112184000000000000000000000000000000000000000000000000000000000000000000000000000000000000000081bb35c4152b605574babd320f8eabe2871ce8c6000000000000000000000000000000000000000000000000000000000000000100000000000000000000000082c304aa105fbbe2aa368a83d7f8945d41f6ca5400000000000000000000000000000000000000000000000000000000000000010000000000000000000000008ca7a5d6f3acd3a7a8bc468a8cd0fb14b6bd28b600000000000000000000000000000000000000000000000000000000000000000000000000000000000000009205c82d529a79b941a9df2f621a160891f57a0d000000000000000000000000000000000000000000000000000000000000000100000000000000000000000093b96d7cde40dc340ca55001f46b3b8e41bc89b4000000000000000000000000000000000000000000000000000000000000000100000000000000000000000093c4b944d05dfe6df7645a86cd2206016c51564d00000000000000000000000000000000000000000000000000000000000000000000000000000000000000009d7ed45ee2e8fc5482fa2428f15c971e6369011d0000000000000000000000000000000000000000000000000000000000000000000000000000000000000000a4c637e0f704745d182e4d38cab7e7485321d0590000000000000000000000000000000000000000000000000000000000000000000000000000000000000000a88e91cef50b792f9449e2d4c699b6b3cce1d19f0000000000000000000000000000000000000000000000000000000000000001000000000000000000000000acb55c530acdb2849e6d4f36992cd8c9d50ed8f70000000000000000000000000000000000000000000000000000000000000000000000000000000000000000ae60d8180437b5c34bb956822ac27109725844730000000000000000000000000000000000000000000000000000000000000000000000000000000000000000af07131c497e06361dc2f75de63dc1d3e113f7cb0000000000000000000000000000000000000000000000000000000000000001000000000000000000000000b8fd82169a574eb97251bf43e443310d33ff056c0000000000000000000000000000000000000000000000000000000000000001000000000000000000000000c10a7f0ac6e3944f4860ee97a937c51572e3a1da0000000000000000000000000000000000000000000000000000000000000001000000000000000000000000d25f31806de8d608d05dfeaeb1140c1d365864b30000000000000000000000000000000000000000000000000000000000000001000000000000000000000000d4e20eca1f996dab35883dc0ad5e3428af888d450000000000000000000000000000000000000000000000000000000000000001000000000000000000000000dc47953c816531a8ca9e1d461ab53687d48eea260000000000000000000000000000000000000000000000000000000000000001000000000000000000000000ea0f2ea61998346ad39dddef7513ae90915afb3c0000000000000000000000000000000000000000000000000000000000000001000000000000000000000000f60e6e6d8648fdbc2834ef7bc6f5e49ab55bec310000000000000000000000000000000000000000000000000000000000000001",
        "nonce": "0x10",
        "chainId": "0x1"
      },
      "additionalContracts": [],
      "isFixedGasLimit": false
    }
  ],
  "receipts": [
    {
      "status": "0x1",
      "cumulativeGasUsed": "0xf7c7a4",
      "logs": [
        {
          "address": "0x682a37ad062793be1b3277aa114419cb35f5f720",
          "topics": [
            "0xc67e7929681aa1bccd63f52b3799bf5805f3009f197db6fdf584b14f7fbf608c",
            "0x42f15f9e4df4994317453477e80e24797cc1a929000000000000000000000000"
          ],
          "data": "0xffffffffffffffffffffffffffffffffffffffffffffffffffffffffffffffff",
          "blockHash": "0xe67b9b5a628da1487d3ac85107d59aab5c3424fd8a4cd70d79bb82117035f83d",
          "blockNumber": "0x152965d",
          "blockTimestamp": "0x67eebaff",
          "transactionHash": "0xa86aa7f68bbe385e48b9488eaf40479936d619bb1321794981a213a497d0b3da",
          "transactionIndex": "0xa7",
          "logIndex": "0x135",
          "removed": false
        },
        {
          "address": "0x42f15f9e4df4994317453477e80e24797cc1a929",
          "topics": [
            "0xdc9dd92c894ed28df4cdf880b63e1f5d6a6a32870a392e08c13ddfe18488caea"
          ],
          "data": "0x000000000000000000000000000000000000000000000000000000000000002000000000000000000000000000000000000000000000000000000000000000250000000000000000000000000db67d60d98cf8d27c8720110c7793929f091cc20000000000000000000000000fe4f44bee93503346a3ac9ee5a26b130a5796d600000000000000000000000013760f50a9d7377e4f20cb8cf9e4c26586c658ff0000000000000000000000001bee69b7dfffa4e2d53c2a2df135c388ad25dcd2000000000000000000000000298afb19a105d59e74658c4c334ff360bade6dd20000000000000000000000002bcfa0283c92b7845ece12ceadc521414bef106700000000000000000000000035e44d92e8f738a272bddbae53d1dc9490e75fe7000000000000000000000000369d807c75a37279d26adeb2deed1a8491283be40000000000000000000000003ba6930bac1630873f5fd206e293ca543fcea7a2000000000000000000000000446970400e1787814ca050a4b45ae9d21b3f7ea7000000000000000000000000450a90fdea8b87a6448ca1c87c88ff65676ac45b0000000000000000000000004b873da454d038b10a87eb196bdbcd43e28b30120000000000000000000000004e0554959a631b3d3938ffc158e0a7b2124af9c500000000000000000000000054945180db7943c0ed0fee7edab2bd24620256bc00000000000000000000000057ba429517c3473b6d34ca9acd56c0e735b94c0200000000000000000000000065b560d887c010c4993c8f8b36e595c171d69d630000000000000000000000007b276aad6d2ebfd7e270c5a2697ac79182d9550e0000000000000000000000007ca911e83dabf90c90dd3de5411a10f1a611218400000000000000000000000081bb35c4152b605574babd320f8eabe2871ce8c600000000000000000000000082c304aa105fbbe2aa368a83d7f8945d41f6ca540000000000000000000000008ca7a5d6f3acd3a7a8bc468a8cd0fb14b6bd28b60000000000000000000000009205c82d529a79b941a9df2f621a160891f57a0d00000000000000000000000093b96d7cde40dc340ca55001f46b3b8e41bc89b400000000000000000000000093c4b944d05dfe6df7645a86cd2206016c51564d0000000000000000000000009d7ed45ee2e8fc5482fa2428f15c971e6369011d000000000000000000000000a4c637e0f704745d182e4d38cab7e7485321d059000000000000000000000000a88e91cef50b792f9449e2d4c699b6b3cce1d19f000000000000000000000000acb55c530acdb2849e6d4f36992cd8c9d50ed8f7000000000000000000000000ae60d8180437b5c34bb956822ac2710972584473000000000000000000000000af07131c497e06361dc2f75de63dc1d3e113f7cb000000000000000000000000b8fd82169a574eb97251bf43e443310d33ff056c000000000000000000000000c10a7f0ac6e3944f4860ee97a937c51572e3a1da000000000000000000000000d25f31806de8d608d05dfeaeb1140c1d365864b3000000000000000000000000d4e20eca1f996dab35883dc0ad5e3428af888d45000000000000000000000000dc47953c816531a8ca9e1d461ab53687d48eea26000000000000000000000000ea0f2ea61998346ad39dddef7513ae90915afb3c000000000000000000000000f60e6e6d8648fdbc2834ef7bc6f5e49ab55bec31",
          "blockHash": "0xe67b9b5a628da1487d3ac85107d59aab5c3424fd8a4cd70d79bb82117035f83d",
          "blockNumber": "0x152965d",
          "blockTimestamp": "0x67eebaff",
          "transactionHash": "0xa86aa7f68bbe385e48b9488eaf40479936d619bb1321794981a213a497d0b3da",
          "transactionIndex": "0xa7",
          "logIndex": "0x136",
          "removed": false
        }
      ],
      "logsBloom": "0x00000000000000000000080000000000000000000000000000000000000000000000000000000000000000000000000000000000000000000000000000000080000000000000000000000000000000000000000000000000000800000000000000000080000000000000000000010080000000000000000000000000000000000000000000000000000000000000000000000000000000000000000000000000000001020000000000000000000000000000000000000000000020000000000000000000000000000000000000000000200000000000000002000000000008000000000000000000000000000000000000408000000000020000000000000000",
      "type": "0x2",
      "transactionHash": "0xa86aa7f68bbe385e48b9488eaf40479936d619bb1321794981a213a497d0b3da",
      "transactionIndex": "0xa7",
      "blockHash": "0xe67b9b5a628da1487d3ac85107d59aab5c3424fd8a4cd70d79bb82117035f83d",
      "blockNumber": "0x152965d",
      "gasUsed": "0xbf779",
      "effectiveGasPrice": "0x326605cc",
      "from": "0xdaee5da6c6597226da268644d30257800d1b858d",
      "to": "0x42f15f9e4df4994317453477e80e24797cc1a929",
      "contractAddress": null
    }
  ],
  "libraries": [],
  "pending": [],
  "returns": {},
  "timestamp": 1743698691,
  "chain": 1,
  "commit": "84600e2"
}