{
  "transactions": [
    {
      "hash": "0x77d48240dec6f7f03f3fe813dd5afa37f66c397eeae4e4f4ef0f04798bb67c59",
      "transactionType": "CALL",
      "contractName": null,
      "contractAddress": "0x42f15f9e4df4994317453477e80e24797cc1a929",
      "function": "setSupportedStakingContracts((address,uint8)[])",
      "arguments": [
        "[(0x446970400e1787814CA050A4b45AE9d21B3f7EA7, 1), (0xd4E20ECA1f996Dab35883dC0AD5E3428AF888D45, 1), (0x2Bcfa0283C92b7845ECE12cEaDc521414BeF1067, 1), (0x450a90fdEa8B87a6448Ca1C87c88Ff65676aC45b, 1), (0x7b276aAD6D2ebfD7e270C5a2697ac79182D9550E, 1), (0x0Fe4F44beE93503346A3Ac9EE5A26b130a5796d6, 0), (0x13760F50a9d7377e4F20CB8CF9e4c26586c658ff, 0), (0x1BeE69b7dFFfA4E2d53C2a2Df135C388AD25dCD2, 0), (0x298aFB19A105D59E74658C4C334Ff360BadE6dd2, 0), (0x54945180dB7943c0ed0FEE7EdaB2Bd24620256bc, 0), (0x57ba429517c3473B6d34CA9aCd56c0e735b94c02, 0), (0x7CA911E83dabf90C90dD3De5411a10F1A6112184, 0), (0x8CA7A5d6f3acd3A7A8bC468a8CD0FB14B6BD28b6, 0), (0x93c4b944D05dfe6df7645A86cd2206016c51564D, 0), (0x9d7eD45EE2E8FC5482fa2428f15C971e6369011d, 0), (0xa4C637e0F704745D182e4D38cAb7E7485321d059, 0), (0xaCB55C530Acdb2849e6d4f36992Cd8c9D50ED8F7, 0), (0xAe60d8180437b5C34bB956822ac2710972584473, 0), (0xa88e91cEF50b792f9449e2D4C699b6B3CcE1D19F, 1), (0x4e0554959A631B3D3938ffC158e0a7b2124aF9c5, 1), (0xD25f31806de8d608D05DfeAEB1140C1D365864B3, 1), (0xF60E6E6d8648FdBC2834EF7bC6f5E49aB55bec31, 1), (0x9205c82D529A79B941A9dF2f621a160891F57a0d, 1), (0xdC47953c816531a8CA9E1D461AB53687d48EEA26, 1), (0xc10A7f0AC6E3944F4860eE97a937C51572e3a1Da, 1), (0xB8Fd82169a574eB97251bF43e443310D33FF056C, 1), (0xaF07131C497E06361dc2F75de63dc1d3e113f7cb, 1), (0x81bb35c4152B605574BAbD320f8EABE2871CE8C6, 1), (0x65B560d887c010c4993C8F8B36E595C171d69D63, 1)]"
      ],
      "transaction": {
        "from": "0xdaee5da6c6597226da268644d30257800d1b858d",
        "to": "0x42f15f9e4df4994317453477e80e24797cc1a929",
        "gas": "0x191df6",
        "value": "0x0",
        "input": "0x1dd2f74b0000000000000000000000000000000000000000000000000000000000000020000000000000000000000000000000000000000000000000000000000000001d000000000000000000000000446970400e1787814ca050a4b45ae9d21b3f7ea70000000000000000000000000000000000000000000000000000000000000001000000000000000000000000d4e20eca1f996dab35883dc0ad5e3428af888d4500000000000000000000000000000000000000000000000000000000000000010000000000000000000000002bcfa0283c92b7845ece12ceadc521414bef10670000000000000000000000000000000000000000000000000000000000000001000000000000000000000000450a90fdea8b87a6448ca1c87c88ff65676ac45b00000000000000000000000000000000000000000000000000000000000000010000000000000000000000007b276aad6d2ebfd7e270c5a2697ac79182d9550e00000000000000000000000000000000000000000000000000000000000000010000000000000000000000000fe4f44bee93503346a3ac9ee5a26b130a5796d6000000000000000000000000000000000000000000000000000000000000000000000000000000000000000013760f50a9d7377e4f20cb8cf9e4c26586c658ff00000000000000000000000000000000000000000000000000000000000000000000000000000000000000001bee69b7dfffa4e2d53c2a2df135c388ad25dcd20000000000000000000000000000000000000000000000000000000000000000000000000000000000000000298afb19a105d59e74658c4c334ff360bade6dd2000000000000000000000000000000000000000000000000000000000000000000000000000000000000000054945180db7943c0ed0fee7edab2bd24620256bc000000000000000000000000000000000000000000000000000000000000000000000000000000000000000057ba429517c3473b6d34ca9acd56c0e735b94c0200000000000000000000000000000000000000000000000000000000000000000000000000000000000000007ca911e83dabf90c90dd3de5411a10f1a611218400000000000000000000000000000000000000000000000000000000000000000000000000000000000000008ca7a5d6f3acd3a7a8bc468a8cd0fb14b6bd28b6000000000000000000000000000000000000000000000000000000000000000000000000000000000000000093c4b944d05dfe6df7645a86cd2206016c51564d00000000000000000000000000000000000000000000000000000000000000000000000000000000000000009d7ed45ee2e8fc5482fa2428f15c971e6369011d0000000000000000000000000000000000000000000000000000000000000000000000000000000000000000a4c637e0f704745d182e4d38cab7e7485321d0590000000000000000000000000000000000000000000000000000000000000000000000000000000000000000acb55c530acdb2849e6d4f36992cd8c9d50ed8f70000000000000000000000000000000000000000000000000000000000000000000000000000000000000000ae60d8180437b5c34bb956822ac27109725844730000000000000000000000000000000000000000000000000000000000000000000000000000000000000000a88e91cef50b792f9449e2d4c699b6b3cce1d19f00000000000000000000000000000000000000000000000000000000000000010000000000000000000000004e0554959a631b3d3938ffc158e0a7b2124af9c50000000000000000000000000000000000000000000000000000000000000001000000000000000000000000d25f31806de8d608d05dfeaeb1140c1d365864b30000000000000000000000000000000000000000000000000000000000000001000000000000000000000000f60e6e6d8648fdbc2834ef7bc6f5e49ab55bec3100000000000000000000000000000000000000000000000000000000000000010000000000000000000000009205c82d529a79b941a9df2f621a160891f57a0d0000000000000000000000000000000000000000000000000000000000000001000000000000000000000000dc47953c816531a8ca9e1d461ab53687d48eea260000000000000000000000000000000000000000000000000000000000000001000000000000000000000000c10a7f0ac6e3944f4860ee97a937c51572e3a1da0000000000000000000000000000000000000000000000000000000000000001000000000000000000000000b8fd82169a574eb97251bf43e443310d33ff056c0000000000000000000000000000000000000000000000000000000000000001000000000000000000000000af07131c497e06361dc2f75de63dc1d3e113f7cb000000000000000000000000000000000000000000000000000000000000000100000000000000000000000081bb35c4152b605574babd320f8eabe2871ce8c6000000000000000000000000000000000000000000000000000000000000000100000000000000000000000065b560d887c010c4993c8f8b36e595c171d69d630000000000000000000000000000000000000000000000000000000000000001",
        "nonce": "0xa",
        "chainId": "0x1"
      },
      "additionalContracts": [],
      "isFixedGasLimit": false
    }
  ],
  "receipts": [
    {
      "status": "0x1",
      "cumulativeGasUsed": "0xbf3493",
      "logs": [
        {
          "address": "0x1f16782a9b75fffad87e7936791c672bddbcb8ec",
          "topics": [
            "0xc67e7929681aa1bccd63f52b3799bf5805f3009f197db6fdf584b14f7fbf608c",
            "0x42f15f9e4df4994317453477e80e24797cc1a929000000000000000000000000"
          ],
          "data": "0xffffffffffffffffffffffffffffffffffffffffffffffffffffffffffffffff",
          "blockHash": "0x684706a473e847e95cfdfe07ff0e342028c270462d7d7505e79897b291af78e2",
          "blockNumber": "0x14bb81c",
          "transactionHash": "0x77d48240dec6f7f03f3fe813dd5afa37f66c397eeae4e4f4ef0f04798bb67c59",
          "transactionIndex": "0x8d",
          "logIndex": "0x126",
          "removed": false
        },
        {
          "address": "0xe9eef8de0188e406c8fdfbea78af358b359c0dda",
          "topics": [
            "0xc67e7929681aa1bccd63f52b3799bf5805f3009f197db6fdf584b14f7fbf608c",
            "0x42f15f9e4df4994317453477e80e24797cc1a929000000000000000000000000"
          ],
          "data": "0xffffffffffffffffffffffffffffffffffffffffffffffffffffffffffffffff",
          "blockHash": "0x684706a473e847e95cfdfe07ff0e342028c270462d7d7505e79897b291af78e2",
          "blockNumber": "0x14bb81c",
          "transactionHash": "0x77d48240dec6f7f03f3fe813dd5afa37f66c397eeae4e4f4ef0f04798bb67c59",
          "transactionIndex": "0x8d",
          "logIndex": "0x127",
          "removed": false
        },
        {
          "address": "0x27bebb7d732be780441c7e37512027442bb537b1",
          "topics": [
            "0xc67e7929681aa1bccd63f52b3799bf5805f3009f197db6fdf584b14f7fbf608c",
            "0x42f15f9e4df4994317453477e80e24797cc1a929000000000000000000000000"
          ],
          "data": "0xffffffffffffffffffffffffffffffffffffffffffffffffffffffffffffffff",
          "blockHash": "0x684706a473e847e95cfdfe07ff0e342028c270462d7d7505e79897b291af78e2",
          "blockNumber": "0x14bb81c",
          "transactionHash": "0x77d48240dec6f7f03f3fe813dd5afa37f66c397eeae4e4f4ef0f04798bb67c59",
          "transactionIndex": "0x8d",
          "logIndex": "0x128",
          "removed": false
        },
        {
          "address": "0xe01efe7c0016771be43a1103ea5b9911f6f58fc7",
          "topics": [
            "0xc67e7929681aa1bccd63f52b3799bf5805f3009f197db6fdf584b14f7fbf608c",
            "0x42f15f9e4df4994317453477e80e24797cc1a929000000000000000000000000"
          ],
          "data": "0xffffffffffffffffffffffffffffffffffffffffffffffffffffffffffffffff",
          "blockHash": "0x684706a473e847e95cfdfe07ff0e342028c270462d7d7505e79897b291af78e2",
          "blockNumber": "0x14bb81c",
          "transactionHash": "0x77d48240dec6f7f03f3fe813dd5afa37f66c397eeae4e4f4ef0f04798bb67c59",
          "transactionIndex": "0x8d",
          "logIndex": "0x129",
          "removed": false
        },
        {
          "address": "0xe5a99646119020abbf70eef7f6d9423d849605ec",
          "topics": [
            "0xc67e7929681aa1bccd63f52b3799bf5805f3009f197db6fdf584b14f7fbf608c",
            "0x42f15f9e4df4994317453477e80e24797cc1a929000000000000000000000000"
          ],
          "data": "0xffffffffffffffffffffffffffffffffffffffffffffffffffffffffffffffff",
          "blockHash": "0x684706a473e847e95cfdfe07ff0e342028c270462d7d7505e79897b291af78e2",
          "blockNumber": "0x14bb81c",
          "transactionHash": "0x77d48240dec6f7f03f3fe813dd5afa37f66c397eeae4e4f4ef0f04798bb67c59",
          "transactionIndex": "0x8d",
          "logIndex": "0x12a",
          "removed": false
        },
        {
          "address": "0x7562437585da000be4815ac4a09430070cf665d1",
          "topics": [
            "0xc67e7929681aa1bccd63f52b3799bf5805f3009f197db6fdf584b14f7fbf608c",
            "0x42f15f9e4df4994317453477e80e24797cc1a929000000000000000000000000"
          ],
          "data": "0xffffffffffffffffffffffffffffffffffffffffffffffffffffffffffffffff",
          "blockHash": "0x684706a473e847e95cfdfe07ff0e342028c270462d7d7505e79897b291af78e2",
          "blockNumber": "0x14bb81c",
          "transactionHash": "0x77d48240dec6f7f03f3fe813dd5afa37f66c397eeae4e4f4ef0f04798bb67c59",
          "transactionIndex": "0x8d",
          "logIndex": "0x12b",
          "removed": false
        },
        {
          "address": "0x4366f2a20fe4d6ba4c29fafbf406cd2ae969a77a",
          "topics": [
            "0xc67e7929681aa1bccd63f52b3799bf5805f3009f197db6fdf584b14f7fbf608c",
            "0x42f15f9e4df4994317453477e80e24797cc1a929000000000000000000000000"
          ],
          "data": "0xffffffffffffffffffffffffffffffffffffffffffffffffffffffffffffffff",
          "blockHash": "0x684706a473e847e95cfdfe07ff0e342028c270462d7d7505e79897b291af78e2",
          "blockNumber": "0x14bb81c",
          "transactionHash": "0x77d48240dec6f7f03f3fe813dd5afa37f66c397eeae4e4f4ef0f04798bb67c59",
          "transactionIndex": "0x8d",
          "logIndex": "0x12c",
          "removed": false
        },
        {
          "address": "0xc077e58164f3c3de4bd92db8a155b91ccdd97a06",
          "topics": [
            "0xc67e7929681aa1bccd63f52b3799bf5805f3009f197db6fdf584b14f7fbf608c",
            "0x42f15f9e4df4994317453477e80e24797cc1a929000000000000000000000000"
          ],
          "data": "0xffffffffffffffffffffffffffffffffffffffffffffffffffffffffffffffff",
          "blockHash": "0x684706a473e847e95cfdfe07ff0e342028c270462d7d7505e79897b291af78e2",
          "blockNumber": "0x14bb81c",
          "transactionHash": "0x77d48240dec6f7f03f3fe813dd5afa37f66c397eeae4e4f4ef0f04798bb67c59",
          "transactionIndex": "0x8d",
          "logIndex": "0x12d",
          "removed": false
        },
        {
          "address": "0xc575d92568ef438552b97a24d8923fb6dd6f4c29",
          "topics": [
            "0xc67e7929681aa1bccd63f52b3799bf5805f3009f197db6fdf584b14f7fbf608c",
            "0x42f15f9e4df4994317453477e80e24797cc1a929000000000000000000000000"
          ],
          "data": "0xffffffffffffffffffffffffffffffffffffffffffffffffffffffffffffffff",
          "blockHash": "0x684706a473e847e95cfdfe07ff0e342028c270462d7d7505e79897b291af78e2",
          "blockNumber": "0x14bb81c",
          "transactionHash": "0x77d48240dec6f7f03f3fe813dd5afa37f66c397eeae4e4f4ef0f04798bb67c59",
          "transactionIndex": "0x8d",
          "logIndex": "0x12e",
          "removed": false
        },
        {
          "address": "0x05fa4d489fcd58ec45df390955b7c0a0327d25d5",
          "topics": [
            "0xc67e7929681aa1bccd63f52b3799bf5805f3009f197db6fdf584b14f7fbf608c",
            "0x42f15f9e4df4994317453477e80e24797cc1a929000000000000000000000000"
          ],
          "data": "0xffffffffffffffffffffffffffffffffffffffffffffffffffffffffffffffff",
          "blockHash": "0x684706a473e847e95cfdfe07ff0e342028c270462d7d7505e79897b291af78e2",
          "blockNumber": "0x14bb81c",
          "transactionHash": "0x77d48240dec6f7f03f3fe813dd5afa37f66c397eeae4e4f4ef0f04798bb67c59",
          "transactionIndex": "0x8d",
          "logIndex": "0x12f",
          "removed": false
        },
        {
          "address": "0x42f15f9e4df4994317453477e80e24797cc1a929",
          "topics": [
            "0xdc9dd92c894ed28df4cdf880b63e1f5d6a6a32870a392e08c13ddfe18488caea"
          ],
          "data": "0x0000000000000000000000000000000000000000000000000000000000000020000000000000000000000000000000000000000000000000000000000000001d000000000000000000000000446970400e1787814ca050a4b45ae9d21b3f7ea7000000000000000000000000d4e20eca1f996dab35883dc0ad5e3428af888d450000000000000000000000002bcfa0283c92b7845ece12ceadc521414bef1067000000000000000000000000450a90fdea8b87a6448ca1c87c88ff65676ac45b0000000000000000000000007b276aad6d2ebfd7e270c5a2697ac79182d9550e0000000000000000000000000fe4f44bee93503346a3ac9ee5a26b130a5796d600000000000000000000000013760f50a9d7377e4f20cb8cf9e4c26586c658ff0000000000000000000000001bee69b7dfffa4e2d53c2a2df135c388ad25dcd2000000000000000000000000298afb19a105d59e74658c4c334ff360bade6dd200000000000000000000000054945180db7943c0ed0fee7edab2bd24620256bc00000000000000000000000057ba429517c3473b6d34ca9acd56c0e735b94c020000000000000000000000007ca911e83dabf90c90dd3de5411a10f1a61121840000000000000000000000008ca7a5d6f3acd3a7a8bc468a8cd0fb14b6bd28b600000000000000000000000093c4b944d05dfe6df7645a86cd2206016c51564d0000000000000000000000009d7ed45ee2e8fc5482fa2428f15c971e6369011d000000000000000000000000a4c637e0f704745d182e4d38cab7e7485321d059000000000000000000000000acb55c530acdb2849e6d4f36992cd8c9d50ed8f7000000000000000000000000ae60d8180437b5c34bb956822ac2710972584473000000000000000000000000a88e91cef50b792f9449e2d4c699b6b3cce1d19f0000000000000000000000004e0554959a631b3d3938ffc158e0a7b2124af9c5000000000000000000000000d25f31806de8d608d05dfeaeb1140c1d365864b3000000000000000000000000f60e6e6d8648fdbc2834ef7bc6f5e49ab55bec310000000000000000000000009205c82d529a79b941a9df2f621a160891f57a0d000000000000000000000000dc47953c816531a8ca9e1d461ab53687d48eea26000000000000000000000000c10a7f0ac6e3944f4860ee97a937c51572e3a1da000000000000000000000000b8fd82169a574eb97251bf43e443310d33ff056c000000000000000000000000af07131c497e06361dc2f75de63dc1d3e113f7cb00000000000000000000000081bb35c4152b605574babd320f8eabe2871ce8c600000000000000000000000065b560d887c010c4993c8f8b36e595c171d69d63",
          "blockHash": "0x684706a473e847e95cfdfe07ff0e342028c270462d7d7505e79897b291af78e2",
          "blockNumber": "0x14bb81c",
          "transactionHash": "0x77d48240dec6f7f03f3fe813dd5afa37f66c397eeae4e4f4ef0f04798bb67c59",
          "transactionIndex": "0x8d",
          "logIndex": "0x130",
          "removed": false
        }
      ],
      "logsBloom": "0x00000000000000000000080000000000000000004004000000000000000000000000000000000000040000000000000000000010000020000000000400000080000000000000000000020000000000000000000000000000000c0400000000000008008000000000000000008001008004000000000020000000000000000000000000000000000000000000000000002000000800000000000000000000001000000900100000004000000220000000020000000000000000802000000000000000010000000000000000000020000000000000000000080a000000000008000000000000000000200000000040000000008000000000060000000000000000",
      "type": "0x2",
      "transactionHash": "0x77d48240dec6f7f03f3fe813dd5afa37f66c397eeae4e4f4ef0f04798bb67c59",
      "transactionIndex": "0x8d",
      "blockHash": "0x684706a473e847e95cfdfe07ff0e342028c270462d7d7505e79897b291af78e2",
      "blockNumber": "0x14bb81c",
      "gasUsed": "0x122f2e",
      "effectiveGasPrice": "0x113b7758e",
      "from": "0xdaee5da6c6597226da268644d30257800d1b858d",
      "to": "0x42f15f9e4df4994317453477e80e24797cc1a929",
      "contractAddress": null
    }
  ],
  "libraries": [],
  "pending": [],
  "returns": {},
  "timestamp": 1738266583,
  "chain": 1,
  "commit": "84600e2"
}