{
  "transactions": [
    {
      "hash": "0x6173a7a0eb1038f1621b4163e36e8e524c25e4a74ba1c7819692c98d5025ae52",
      "transactionType": "CALL",
      "contractName": null,
      "contractAddress": "0x42f15f9e4df4994317453477e80e24797cc1a929",
      "function": "setSupportedStakingContracts((address,uint8)[])",
      "arguments": [
        "[(0x446970400e1787814CA050A4b45AE9d21B3f7EA7, 1), (0xd4E20ECA1f996Dab35883dC0AD5E3428AF888D45, 1), (0x2Bcfa0283C92b7845ECE12cEaDc521414BeF1067, 1), (0x450a90fdEa8B87a6448Ca1C87c88Ff65676aC45b, 1), (0x7b276aAD6D2ebfD7e270C5a2697ac79182D9550E, 1), (0x0Fe4F44beE93503346A3Ac9EE5A26b130a5796d6, 0), (0x13760F50a9d7377e4F20CB8CF9e4c26586c658ff, 0), (0x1BeE69b7dFFfA4E2d53C2a2Df135C388AD25dCD2, 0), (0x298aFB19A105D59E74658C4C334Ff360BadE6dd2, 0), (0x54945180dB7943c0ed0FEE7EdaB2Bd24620256bc, 0), (0x57ba429517c3473B6d34CA9aCd56c0e735b94c02, 0), (0x7CA911E83dabf90C90dD3De5411a10F1A6112184, 0), (0x8CA7A5d6f3acd3A7A8bC468a8CD0FB14B6BD28b6, 0), (0x93c4b944D05dfe6df7645A86cd2206016c51564D, 0), (0x9d7eD45EE2E8FC5482fa2428f15C971e6369011d, 0), (0xa4C637e0F704745D182e4D38cAb7E7485321d059, 0), (0xaCB55C530Acdb2849e6d4f36992Cd8c9D50ED8F7, 0), (0xAe60d8180437b5C34bB956822ac2710972584473, 0), (0xa88e91cEF50b792f9449e2D4C699b6B3CcE1D19F, 1)]"
      ],
      "transaction": {
        "from": "0xdaee5da6c6597226da268644d30257800d1b858d",
        "to": "0x42f15f9e4df4994317453477e80e24797cc1a929",
        "gas": "0xfd6a8",
        "value": "0x0",
        "input": "0x1dd2f74b00000000000000000000000000000000000000000000000000000000000000200000000000000000000000000000000000000000000000000000000000000013000000000000000000000000446970400e1787814ca050a4b45ae9d21b3f7ea70000000000000000000000000000000000000000000000000000000000000001000000000000000000000000d4e20eca1f996dab35883dc0ad5e3428af888d4500000000000000000000000000000000000000000000000000000000000000010000000000000000000000002bcfa0283c92b7845ece12ceadc521414bef10670000000000000000000000000000000000000000000000000000000000000001000000000000000000000000450a90fdea8b87a6448ca1c87c88ff65676ac45b00000000000000000000000000000000000000000000000000000000000000010000000000000000000000007b276aad6d2ebfd7e270c5a2697ac79182d9550e00000000000000000000000000000000000000000000000000000000000000010000000000000000000000000fe4f44bee93503346a3ac9ee5a26b130a5796d6000000000000000000000000000000000000000000000000000000000000000000000000000000000000000013760f50a9d7377e4f20cb8cf9e4c26586c658ff00000000000000000000000000000000000000000000000000000000000000000000000000000000000000001bee69b7dfffa4e2d53c2a2df135c388ad25dcd20000000000000000000000000000000000000000000000000000000000000000000000000000000000000000298afb19a105d59e74658c4c334ff360bade6dd2000000000000000000000000000000000000000000000000000000000000000000000000000000000000000054945180db7943c0ed0fee7edab2bd24620256bc000000000000000000000000000000000000000000000000000000000000000000000000000000000000000057ba429517c3473b6d34ca9acd56c0e735b94c0200000000000000000000000000000000000000000000000000000000000000000000000000000000000000007ca911e83dabf90c90dd3de5411a10f1a611218400000000000000000000000000000000000000000000000000000000000000000000000000000000000000008ca7a5d6f3acd3a7a8bc468a8cd0fb14b6bd28b6000000000000000000000000000000000000000000000000000000000000000000000000000000000000000093c4b944d05dfe6df7645a86cd2206016c51564d00000000000000000000000000000000000000000000000000000000000000000000000000000000000000009d7ed45ee2e8fc5482fa2428f15c971e6369011d0000000000000000000000000000000000000000000000000000000000000000000000000000000000000000a4c637e0f704745d182e4d38cab7e7485321d0590000000000000000000000000000000000000000000000000000000000000000000000000000000000000000acb55c530acdb2849e6d4f36992cd8c9d50ed8f70000000000000000000000000000000000000000000000000000000000000000000000000000000000000000ae60d8180437b5c34bb956822ac27109725844730000000000000000000000000000000000000000000000000000000000000000000000000000000000000000a88e91cef50b792f9449e2d4c699b6b3cce1d19f0000000000000000000000000000000000000000000000000000000000000001",
        "nonce": "0x8",
        "chainId": "0x1"
      },
      "additionalContracts": [],
      "isFixedGasLimit": false
    }
  ],
  "receipts": [
    {
      "status": "0x1",
      "cumulativeGasUsed": "0x6f39e0",
      "logs": [
        {
          "address": "0xa6851e43fa955753ee90a72c59030e0423f27e41",
          "topics": [
            "0xc67e7929681aa1bccd63f52b3799bf5805f3009f197db6fdf584b14f7fbf608c",
            "0x42f15f9e4df4994317453477e80e24797cc1a929000000000000000000000000"
          ],
          "data": "0xffffffffffffffffffffffffffffffffffffffffffffffffffffffffffffffff",
          "blockHash": "0xd73328bc942e581b0e963d6ada95de43c9a7b3ac035813e89c827dbfc377779a",
          "blockNumber": "0x14b6099",
          "transactionHash": "0x6173a7a0eb1038f1621b4163e36e8e524c25e4a74ba1c7819692c98d5025ae52",
          "transactionIndex": "0x74",
          "logIndex": "0x79",
          "removed": false
        },
        {
          "address": "0xa32e5868713cbeb1880578f5626ed53cc3e1a2fd",
          "topics": [
            "0xc67e7929681aa1bccd63f52b3799bf5805f3009f197db6fdf584b14f7fbf608c",
            "0x42f15f9e4df4994317453477e80e24797cc1a929000000000000000000000000"
          ],
          "data": "0xffffffffffffffffffffffffffffffffffffffffffffffffffffffffffffffff",
          "blockHash": "0xd73328bc942e581b0e963d6ada95de43c9a7b3ac035813e89c827dbfc377779a",
          "blockNumber": "0x14b6099",
          "transactionHash": "0x6173a7a0eb1038f1621b4163e36e8e524c25e4a74ba1c7819692c98d5025ae52",
          "transactionIndex": "0x74",
          "logIndex": "0x7a",
          "removed": false
        },
        {
          "address": "0xcca347c3d3cafb909a7506ead727805d38a82ee3",
          "topics": [
            "0xc67e7929681aa1bccd63f52b3799bf5805f3009f197db6fdf584b14f7fbf608c",
            "0x42f15f9e4df4994317453477e80e24797cc1a929000000000000000000000000"
          ],
          "data": "0xffffffffffffffffffffffffffffffffffffffffffffffffffffffffffffffff",
          "blockHash": "0xd73328bc942e581b0e963d6ada95de43c9a7b3ac035813e89c827dbfc377779a",
          "blockNumber": "0x14b6099",
          "transactionHash": "0x6173a7a0eb1038f1621b4163e36e8e524c25e4a74ba1c7819692c98d5025ae52",
          "transactionIndex": "0x74",
          "logIndex": "0x7b",
          "removed": false
        },
        {
          "address": "0xd6c4b4267bfb908bbdf8c9bda7d0ae517aa145b0",
          "topics": [
            "0xc67e7929681aa1bccd63f52b3799bf5805f3009f197db6fdf584b14f7fbf608c",
            "0x42f15f9e4df4994317453477e80e24797cc1a929000000000000000000000000"
          ],
          "data": "0xffffffffffffffffffffffffffffffffffffffffffffffffffffffffffffffff",
          "blockHash": "0xd73328bc942e581b0e963d6ada95de43c9a7b3ac035813e89c827dbfc377779a",
          "blockNumber": "0x14b6099",
          "transactionHash": "0x6173a7a0eb1038f1621b4163e36e8e524c25e4a74ba1c7819692c98d5025ae52",
          "transactionIndex": "0x74",
          "logIndex": "0x7c",
          "removed": false
        },
        {
          "address": "0xdc439a51ab1c1d4db0cd09a009f94ec4d127d93c",
          "topics": [
            "0xc67e7929681aa1bccd63f52b3799bf5805f3009f197db6fdf584b14f7fbf608c",
            "0x42f15f9e4df4994317453477e80e24797cc1a929000000000000000000000000"
          ],
          "data": "0xffffffffffffffffffffffffffffffffffffffffffffffffffffffffffffffff",
          "blockHash": "0xd73328bc942e581b0e963d6ada95de43c9a7b3ac035813e89c827dbfc377779a",
          "blockNumber": "0x14b6099",
          "transactionHash": "0x6173a7a0eb1038f1621b4163e36e8e524c25e4a74ba1c7819692c98d5025ae52",
          "transactionIndex": "0x74",
          "logIndex": "0x7d",
          "removed": false
        },
        {
          "address": "0x6d636b070cd59b17b47931e9e0108869a310fb39",
          "topics": [
            "0xc67e7929681aa1bccd63f52b3799bf5805f3009f197db6fdf584b14f7fbf608c",
            "0x42f15f9e4df4994317453477e80e24797cc1a929000000000000000000000000"
          ],
          "data": "0xffffffffffffffffffffffffffffffffffffffffffffffffffffffffffffffff",
          "blockHash": "0xd73328bc942e581b0e963d6ada95de43c9a7b3ac035813e89c827dbfc377779a",
          "blockNumber": "0x14b6099",
          "transactionHash": "0x6173a7a0eb1038f1621b4163e36e8e524c25e4a74ba1c7819692c98d5025ae52",
          "transactionIndex": "0x74",
          "logIndex": "0x7e",
          "removed": false
        },
        {
          "address": "0x42f15f9e4df4994317453477e80e24797cc1a929",
          "topics": [
            "0xdc9dd92c894ed28df4cdf880b63e1f5d6a6a32870a392e08c13ddfe18488caea"
          ],
          "data": "0x00000000000000000000000000000000000000000000000000000000000000200000000000000000000000000000000000000000000000000000000000000013000000000000000000000000446970400e1787814ca050a4b45ae9d21b3f7ea7000000000000000000000000d4e20eca1f996dab35883dc0ad5e3428af888d450000000000000000000000002bcfa0283c92b7845ece12ceadc521414bef1067000000000000000000000000450a90fdea8b87a6448ca1c87c88ff65676ac45b0000000000000000000000007b276aad6d2ebfd7e270c5a2697ac79182d9550e0000000000000000000000000fe4f44bee93503346a3ac9ee5a26b130a5796d600000000000000000000000013760f50a9d7377e4f20cb8cf9e4c26586c658ff0000000000000000000000001bee69b7dfffa4e2d53c2a2df135c388ad25dcd2000000000000000000000000298afb19a105d59e74658c4c334ff360bade6dd200000000000000000000000054945180db7943c0ed0fee7edab2bd24620256bc00000000000000000000000057ba429517c3473b6d34ca9acd56c0e735b94c020000000000000000000000007ca911e83dabf90c90dd3de5411a10f1a61121840000000000000000000000008ca7a5d6f3acd3a7a8bc468a8cd0fb14b6bd28b600000000000000000000000093c4b944d05dfe6df7645a86cd2206016c51564d0000000000000000000000009d7ed45ee2e8fc5482fa2428f15c971e6369011d000000000000000000000000a4c637e0f704745d182e4d38cab7e7485321d059000000000000000000000000acb55c530acdb2849e6d4f36992cd8c9d50ed8f7000000000000000000000000ae60d8180437b5c34bb956822ac2710972584473000000000000000000000000a88e91cef50b792f9449e2d4c699b6b3cce1d19f",
          "blockHash": "0xd73328bc942e581b0e963d6ada95de43c9a7b3ac035813e89c827dbfc377779a",
          "blockNumber": "0x14b6099",
          "transactionHash": "0x6173a7a0eb1038f1621b4163e36e8e524c25e4a74ba1c7819692c98d5025ae52",
          "transactionIndex": "0x74",
          "logIndex": "0x7f",
          "removed": false
        }
      ],
      "logsBloom": "0x00000000000000000000080000000000004010000000000000000000000000000000000000000000000000020000000000000000000000000000000000000080000002000000000000000000000000000000000000000000000800000000000000000080080000000000000000010080000002000000000000000000000000000000001000020000000001000000400040000800000800000000000000010000000001000001000000002000000000000000000000000000000020000000000000000000000000000000000000000000000000000000000002000000000008000000000000000000000000000000000000008000000000020000010000000000",
      "type": "0x2",
      "transactionHash": "0x6173a7a0eb1038f1621b4163e36e8e524c25e4a74ba1c7819692c98d5025ae52",
      "transactionIndex": "0x74",
      "blockHash": "0xd73328bc942e581b0e963d6ada95de43c9a7b3ac035813e89c827dbfc377779a",
      "blockNumber": "0x14b6099",
      "gasUsed": "0xad46b",
      "effectiveGasPrice": "0x38825a753",
      "from": "0xdaee5da6c6597226da268644d30257800d1b858d",
      "to": "0x42f15f9e4df4994317453477e80e24797cc1a929",
      "contractAddress": null
    }
  ],
  "libraries": [],
  "pending": [],
  "returns": {},
  "timestamp": 1737996415,
  "chain": 1,
  "commit": "84600e2"
}